:020000040000FA
:10000000E8040020590100006101000063010000C4
:1000100065010000670100006901000000000000A8
:100020000000000000000000000000006B01000064
:100030006D010000000000006F0100007101000070
:100040007301000049090000730100007301000002
:1000500073010000730100007301000073010000D0
:1000600073010000730100007301000073010000C0
:100070007301000073010000390C000073010000DF
:1000800073010000730100007301000073010000A0
:100090007301000073010000730100007301000090
:1000A0007301000073010000730100007301000080
:1000B0007301000073010000730100007301000070
:1000C0007301000073010000730100007301000060
:1000D0007301000073010000730100007301000050
:1000E0007301000073010000730100007301000040
:1000F00073010000730100007301000000000000A4
:1001000000000000000000000000000000000000EF
:1001100000000000000000000000000000000000DF
:1001200073010000730100007301000073010000FF
:1001300073010000730100007301000073010000EF
:1001400000000000DFF80CD000F052FB0048004730
:1001500011180000E80400200648804706480047C0
:10016000FEE7FEE7FEE7FEE7FEE7FEE7FEE7FEE767
:10017000FEE7FEE7D90900004501000070470000D6
:10018000FFFFFFFFFFFFFFFFFFFFFFFFFFFFFFFF7F
:1001900003329CA77F000000FFFFFFFFFFFFFFFF70
:1001A0002DE9F05F0546002092469B4688460646AC
:1001B000814640241BE0284641464746224600F03F
:1001C0002DFA53465A46C01A914110D3114618468B
:1001D000224600F016F82D1A67EB01084F4622461A
:1001E0000120002100F00DF817EB00094E41201E00
:1001F000A4F10104DFDC484631462A464346BDE807
:10020000F09F202A04DB203A00FA02F10020704718
:100210009140C2F1200320FA03F319439040704744
:1002200010B5002200E0521C835C8C5CA34201D11B
:10023000002BF8D1D8B2E1B2401A10BD2DE9F05F21
:1002400093460F4680460446002600F0FFFDD0F896
:100250000090824614F8015B2DB100F001FA0068AD
:10026000405DC007F6D12B2D02D02D2D1AD0641E73
:100270000021CAF800105A463946204600F0F4F929
:10028000014627B13868A04201D1C7F80080DAF8EA
:100290000000022809D0CAF80090700505D5484230
:1002A000BDE8F09F46F48066E2E70846F8E72DE9EE
:1002B000FE4F804681EA0300C00F0C46009021F0FB
:1002C000004123F00045B8EB0200A94105D24046A9
:1002D000214690461C460B46024623F00040104340
:1002E00047D0270DC7F30A00C3F30A510290401A02
:1002F000019040286BDAC3F3130040F4801B009890
:10030000924620B10023D2EB030A63EB0B0B01985A
:100310005946C0F140025046FFF773FF06460D46AE
:1003200050465946019A00F089F910EB08006141E6
:10033000002487EA115284EAE7731A4340D0009AF6
:1003400062B3019A012A4FEA075215DC001B61EBE8
:1003500002014FF0004202EA0752CDE90042001CC0
:1003600041F5801132462B4600F0DCF903B0BDE8C0
:10037000F08F40462146F9E7001B61EB0201001CAB
:1003800041F5801300185B412018A2F5001747EBD8
:10039000030140EAD570B6196D4111E06D084FEACE
:1003A000360645EAC0754FEA0752001B61EB0201B1
:1003B000001C41F5801149084FEA300000195141F5
:1003C00032462B4603B0BDE8F04F00F09CB90098D0
:1003D000012240000023D0EB020263EBE07300989F
:1003E00021464FEAE074B8EB000061EB0401E9E755
:1003F00083F000435BE781F0004158E72DE9FE4FB1
:1004000081EA030404F0004421F0004100944FF01D
:10041000000B23F0004350EA01045ED052EA0304CB
:100420005BD0C3F30A54C1F30A552C44A4F2F3344D
:100430000194A0FB0254C1F3130141F48011C3F3F2
:10044000130343F4801301FB024400FB034E840AB0
:10045000970A44EA815447EA8357A4FB0768029548
:100460008D0A05FB07854FEA932C04FB0C542705E6
:10047000029D4FEA065847EA1637B5EB08056EEBC2
:10048000070C870E920E47EA811742EA8312A7FBF8
:100490000201B6EB0B0164EB00042B0D43EA0C33B5
:1004A0005E1844EB1C50DA465146E7FB0201C5F3E7
:1004B00013044FEA0B3343EA14534FEA0432019C0E
:1004C00043EA0603A4F10C040294009CCDE900B4B5
:1004D00000F028F903B0BDE8F08F00200146F9E7ED
:1004E0002DE9F04D81EA030404F0004B21F00045B2
:1004F00014464FF0000A23F0004150EA050220D0D4
:1005000054EA01021DD0C5F30A570246C5F313038E
:10051000C1F31300C1F30A5640F4801543F480136D
:10052000A7EB0608101BD64608F2FD3873EB050052
:1005300002D308F1010801E092185B41B8F1000F05
:1005400003DA00200146BDE8F08D00204FF4801151
:10055000064684460EE0171B73EB050705D3121BF6
:1005600063EB050306434CEA010C49084FEA3000EF
:1005700092185B4150EA0107EDD152EA030012D014
:1005800082EA040083EA0501084305D0101BAB4151
:1005900006D20122002306E000224FF0004302E0D1
:1005A0006FF0010253101AEB06004CEB085110EBF0
:1005B0000A0041EB0B01BDE8F04D00F0A4B80000CB
:1005C00030B5041E71F1000404DB4FF000444042DA
:1005D00064EB0101141E73F1000405DB1C464FF0AF
:1005E0000043524263EB0403994208BF904230BD7E
:1005F00030B50B46014600202022012409E021FAF3
:1006000002F59D4205D303FA02F5491B04FA02F5EF
:100610002844151EA2F10102F1DC30BD202A04DBC2
:10062000203A21FA02F00021704721FA02F3D0406B
:10063000C2F120029140084319467047202A06DB88
:10064000CB17203A41FA02F043EAE07306E041FAA0
:1006500002F3D040C2F1200291400843194670478E
:1006600000487047181900002DE9F05F82460078B5
:10067000002715468B460AF10104B946302801D0FF
:100680009DB113E014F8010B0127782803D05828F6
:1006900001D045B10AE00DB1102D07D1002710257A
:1006A00014F8010B02E0082500E00A250026B046F8
:1006B0000EE005FB080005FB06F1012701EB1046E3
:1006C0001FFA80F8B6F5803F00D3B94614F8010B45
:1006D000294600F09FF80028EBDABBF1000F05D0A7
:1006E0000FB1641E00E05446CBF80040B9F1000F92
:1006F00006D000F0ABFB02210160C81EBDE8F09FF0
:1007000048EA0640FAE710B5141E73F1000408DA4F
:10071000401C41F1000192185B411A4301D120F0C5
:10072000010010BD2DE9F04D92469B4611B1B1FA82
:1007300081F202E0B0FA80F220329046FFF761FDCC
:1007400004460F4640EA0A0041EA0B0153465A4666
:10075000084313D0114653EA010019D0C8F14002F2
:100760005046FFF75BFF05460E4650465946424647
:10077000FFF747FD084305D0012004E02046394635
:10078000BDE8F08D0020054346EAE0762C43374370
:100790000A986305E40AA0EB08000022FD0A44EA77
:1007A00047540A3002D500200146E9E70105101937
:1007B0006941DDE9084500196941BDE8F04DA2E74E
:1007C000C1F30A52C1F3130140F2FF3341F4801127
:1007D0009A4202DA00200146704740F233439A42BF
:1007E000A2F2334202DC5242FFF718BFFFF709BD05
:1007F000064C074D06E0E06840F0010394E807006E
:1008000098471034AC42F6D3FFF7A0FC6C190000F7
:100810008C1900003A2800D2303820F02002412AFA
:1008200001D3A2F13700884201D34FF0FF30704767
:100830004FF4806001490880704700005800024072
:1008400000B502464FF6FF703549088134494831FA
:1008500008803349A1F888000846B0F8840040F0C9
:1008600040002F498431088040202D49A1F898008C
:100870000846006820F03F0040F015000860084678
:10088000006C20F4404008640846B0F8440040F48E
:10089000806023494431088000204FF04021888146
:1008A00044F243300882012008831D48808940F4C7
:1008B00000401B49888109201A4908600120194914
:1008C0001031086000BF002809DB00F01F03012180
:1008D000994043099B0003F1E023C3F8001100BFD6
:1008E000FFF7A6FF00F022F80D48006C40F4A83096
:1008F0000B4908640A484430008840F40070A1F8AD
:10090000440000200849088044F24B30091D08804B
:10091000012005490C31088000F00EF8002000BDD0
:100920000000024080C004400C44004040200149C7
:1009300008807047980002404FF400700149088019
:100940007047000058000240012002490860024937
:100950000860704790C004400000002010B50446B5
:10096000C920134908804CF61430124908600A2047
:100970001149C1F8100100BF0E48001D006800F4C5
:1009800000600028F8D04CF614300A49086040F2A4
:1009900001200949C1F80003002008490860064900
:1009A000C1F814034FF4613000F074F9012010BD58
:1009B000082C00400CC1044000C0044004C30440A3
:1009C000F8B505460C460A26324669462846FFF722
:1009D00035FC20600020F8BD10B50121062000F094
:1009E000A1FE00BFEFF31080044672B60E480F4917
:1009F00008604FF4E0200D491C31086000BF00BFC3
:100A000000BFBFF36F8F00BF00BF00BF00BF00BFBC
:100A100000BFBFF34F8F00BF00BF00BF00BF84F314
:100A2000108800BF10BD00000000000008ED00E0CD
:100A300070B5002400201449086006E01348005DEA
:100A400010B11248051904E0641C11480068844282
:100A5000F4D300BF002412E004EB44010D4A02EB82
:100A6000810148682946FFF7DBFB38B904EB4400F5
:100A7000084951F820000449086002E0641C062C73
:100A8000EADB00BF70BD00005400002068000020B9
:100A90004C0000200400002070B504462448006883
:100AA0007F2802D30020224908600D2C01D00A2C97
:100AB00033D100201F491E4A126888541C48006820
:100AC00018B900201A49086070BD00F043F81A48B0
:100AD000006818B9002016490860F5E7FFF7A8FF7D
:100AE0001648006818B9002011490860ECE7124860
:100AF0000068012801D900F065F811480168114823
:100B000000680E4A12689047054629460EA000F07C
:100B10008DF900200649086007E005480168006873
:100B2000401C034A10600348445400BFCCE7000057
:100B30004C000020680000205000002054000020DD
:100B40005C000020580000207265733A3078253030
:100B500038780A0000200022174B1A60002109E0B3
:100B6000164A125C202A03D10022144B1A5400E0CA
:100B700004E0401C124A12689042F1D300BF104AB0
:100B80001268904200D1704710E00C4A125C202A93
:100B900004D10022094B1A54002106E021B9064A6B
:100BA0001268521C044B1A600121401C044A12684E
:100BB0009042EAD300BFE6E7500000206800002022
:100BC0004C00002010B5184C002018490860184946
:100BD000086000E0641C20780028FBD000E0641C62
:100BE00020780028FBD100E0641C20780028FBD08E
:100BF0000E492046FFF7E4FE00B110BD0D48006825
:100C0000022800D1F9E700E0641C20780028FBD11D
:100C100000E0641C20780028FBD005492046FFF73F
:100C2000CFFE00BFE9E70000680000205800002068
:100C30005C000020500000202DE9F0411448848A17
:100C4000048904F00E0004280DD11148868E002579
:100C500006E00F480088C7B23846FFF71DFF6D1C3D
:100C6000B542F6D300BF04F00E000C280DD10848A1
:100C7000868E002506E006480088C7B23846FFF792
:100C80000BFF6D1CB542F6D300BFBDE8F08100003C
:100C9000005000402DE9F04F87B006460320059034
:100CA000002004905B4C00255B48006820F4700035
:100CB00040F4A000584908605848006800F47C5887
:100CC0004FEA2828B8F1000F01D14FF0010853482E
:100CD000001F006800F0030ABAF1000F09D0BAF152
:100CE000010F09D0BAF1020F14D0BAF1030F1ED1CF
:100CF0001AE04B4C00251BE04848001F006800F438
:100D00000070B0F5007F02D1454C002501E0414C58
:100D100000250DE041480830006800F01F0B4148F5
:100D20000BFB00F4E51703E03D4C002500E000BF9D
:100D300000BF03203C4988854FF0200909FB08F0DB
:100D4000C11702460B46CDE9000120462946FFF7B0
:100D500027FA3246F317CDE90201FFF721FA471EC1
:100D600031490F8509FB08F04FF4006191FBF0F069
:100D70004FEAE071A0FB042301FB043100FB0510E6
:100D8000CDE900203A464FEAE773DDE90001FFF7BD
:100D900007FA3246F317CDE90201FFF701FA4FF4E3
:100DA0000061401A4FF4084140EA01001E4988845E
:100DB0004FF000008880049800F03C00059901F095
:100DC000030140EA0100184988814FF001000884BE
:100DD0000846008C40F0060008840846008C20F08D
:100DE000060008844FF00E00002809DB00F01F0207
:100DF000012191404209920002F1E022C2F8001163
:100E000000BF0520084988800846808A07B0BDE8F1
:100E1000F08F00000024F4000000024004C30440EE
:100E200080BA8C0140420F00005000400FB4054BC7
:100E300010B503A9044A029800F0DCF810BC5DF874
:100E400014FB0000551700006000002000487047A8
:100E50006400002002E008C8121F08C1002AFAD16D
:100E60007047002001E001C1121F002AFBD170472A
:100E70002DE9FF5F82B00021DDE90430020DDDF8CD
:100E800040B0034318D044F61050A2F2FF32424360
:100E90001514119801281FD0A5EB0B00401C5FEA28
:100EA000000A4FF000064E4FDFF83891B04650462A
:100EB00015D5CAF1000413E0119801244AA30128B2
:100EC00001D16FEA0B010298119AC0E90031C0E923
:100ED000024206B0BDE8F09FCBF10000DFE7044618
:100EE0000021404A491842EB0450CDE9001012E0BD
:100EF000E00707D032463B4640464946FFF77EFAB8
:100F00008046894632463B4610461946FFF776FA38
:100F100006460F466410002CEAD1DDE90401DDE944
:100F20000023BAF1000F06DAFFF768FA42464B4693
:100F3000FFF764FA05E0FFF7D3FA42464B46FFF7A6
:100F4000CFFA04460E460022284BFFF739FB03D8A0
:100F50004FF0FF30014607E00022254B2046314686
:100F6000FFF7A5F9FFF72CFC102409E0002C0ADBA1
:100F70000A220023FFF714F9039B30321A55641E2E
:100F800050EA0102F2D1641C039AC4F11103144423
:100F9000119A012A03D0012208430DD10AE0084327
:100FA00004D000204FF0110B119072E7A3EB0B055A
:100FB0006D1E0DE05B4504DD4FF0000205F10105FB
:100FC00004E003DA4FF00002A5F10105002AECD09D
:100FD00002981199C0E90231C0E9004579E70000A3
:100FE000000014400000F03F300000000000F0431B
:100FF0000000E03F2DE9FF4F95B09B46894606462D
:1010000000250FE2252877D100242746F84A012140
:10101000059400E0044316F8013F203B01FA03F079
:101020001042F7D130782A2811D06FF02F03307892
:10103000A0F13002092A16D8059A44F0020402EB06
:10104000820203EB42021044761C0590EFE759F848
:10105000042B0592002A03DA504244F40054059010
:1010600044F00204761C30782E2816D116F8010FB1
:1010700044F004042A280DD06FF02F023078A0F13C
:101080003003092B09D807EB870302EB4303C7188A
:10109000761CF3E759F8047B761C30786C280FD067
:1010A00006DC4C2817D068280DD06A2814D104E03B
:1010B000742810D07A280FD10DE044F400140AE00F
:1010C00044F4801401E044F440147278824202D166
:1010D00004F58014761C761C307866280BD013DC5F
:1010E000582877D009DC002875D04528F6D0462846
:1010F000F4D047281AD19DE118E0632835D0642840
:1011000079D0652812D195E1702873D008DC672862
:10111000F1D069286FD06E280DD06F2806D1B5E0C8
:1011200073282CD0752875D0782874D05A46179912
:1011300090476D1C75E1C4F30250022809D00328C2
:101140000DD0D9F8001004280DD00D6009F1040964
:1011500067E1D9F80010EA17C1E90052F6E7D9F8BB
:1011600000100D80F2E70D70F0E719F8041B8DF800
:10117000001000208DF80100EA46012003E059F834
:1011800004AB4FF0FF3061074FF0000102D40DE0D7
:1011900008F101018846B9420FDA8045F8DB1AF8F8
:1011A00008100029F4D108E008F1010188468142C5
:1011B000FADB1AF808100029F6D105985B46A0EB77
:1011C000080721463846179A00F094FA284400EBA5
:1011D000080507E04DE029E10DE01AF8010B5A4639
:1011E00017999047B8F10108F7D25B462146384677
:1011F000179A13E142E00A220092C4F302524FF020
:10120000000A022A08D059F804CB032A4FEAEC71ED
:101210000AD00DE029E02AE009F1070121F00702D8
:10122000F2E802C1914609E00FFA8CFC4FEAEC713A
:10123000042A03D14FFA8CFC4FEAEC71002907DA3B
:101240000A460021DCF1000C61EB02012D2202E0D4
:10125000220504D52B228DF80420012203E0E207A9
:1012600001D02022F7E7904659E00A2102E010223F
:101270000DE010214FF0000A00910BE010224FF01A
:10128000000A44F004040827009203E008224FF00B
:10129000000A0092C4F30252022A05D059F804CB86
:1012A0000021032A08D009E009F1070121F0070213
:1012B000F2E802C1914605E01FFA8CFC042A01D134
:1012C0000CF0FF0C4FF00008220728D5702806D03C
:1012D000009B83F0100353EA0A0305D00EE040227E
:1012E0008DF80420012208E05CEA010206D03022D9
:1012F0008DF804208DF8050002229046009B83F0B3
:10130000080353EA0A030AD15CEA010201D1620729
:1013100005D530228DF804204FF001087F1E582893
:1013200004D034A003900EA802900DE036A0F9E797
:1013300053466046009AFEF733FF84460398825C6A
:101340000298401E029002705CEA0100F0D10298FF
:1013500006A9081A00F1200A600702D524F4803497
:1013600000E00127574502DDA7EB0A0000E000205E
:1013700000EB0A01009005984144401A0590E003F3
:1013800006D45B462146179A059800F0B3F9054448
:10139000002706E001A85A46C05D179990476D1CCA
:1013A0007F1C4745F6DBE0030CD55B462146179AC8
:1013B000059800F09FF9054404E030205A4617993B
:1013C00090476D1C0099481E00900029F5DC08E04C
:1013D000029802995A460078491C02911799904741
:1013E0006D1CBAF10001AAF1010AF1DC65E100000F
:1013F00009280100303132333435363738396162EB
:1014000063646566000000003031323334353637AE
:1014100038394142434445460000000000F058F985
:101420000544761C307800287FF4ECAD19B02846CE
:10143000BDE8F08F620700D4062709F1070222F009
:10144000070CFCE80223E14603F000485FEA080CC1
:1014500002D00FF2702C0DE05FEA045C02D50FF2AF
:10146000682C07E05FEAC47C02D00FF2602C01E038
:10147000AFF2700C4FF0FF3823F00043CDF850C0AE
:1014800065280CD006DC452809D046281DD0472801
:101490003DD13DE0662818D067287ED138E0002194
:1014A000112F01DB112000E0781CCDE9000106A915
:1014B0000EA8FFF7DDFCDDE90F010E9A0391002174
:1014C000009207F1010A04914DE04FF000400097AF
:1014D000CDE9011006A90EA8FFF7CAFCDDE90F024D
:1014E00003920E9B11990022DDF80CA00093049248
:1014F00011B9791C00EB010AB7EB0A0004D4C0F162
:10150000FF3007F1010A0490AAEB0700019044E0C4
:10151000012F00DA01270021112F01DD112000E049
:101520003846CDE9000106A90EA8FFF7A1FCDDE9C8
:101530000F010E9A0391002104910092BA462107EF
:101540000CD40399514500DA8A46BAF1010F05DD42
:10155000009AAAF10101515C302908D0B84202DAA0
:1015600010F1040F06DA0121CDE9011015E0AAF10E
:101570000101E9E7002805DC049901440491AAEB84
:10158000000102E0411C514500DD8A460499401AE1
:10159000401C01904FF000400290200704D40198B5
:1015A000504501DBCDF8048000208DF84F000298F3
:1015B0000DF14F07B0F1004F25D02B200E9002986F
:1015C0004FF0020800280CDA404202902D200E90C5
:1015D00007E00A210298FFF70BF83031029007F874
:1015E000011DB8F10001A8F10108F2DC0298002801
:1015F000EFD1791E0E980870307800F0200040F08E
:10160000450007F8020D12A8C01B00F10708149846
:10161000007800B1012000EB0A01019801EBE071B4
:1016200005984144401A401E0590E00306D45B46ED
:101630002146179A059800F05DF805441498007843
:1016400018B15A46179990476D1CE00324D55B46A4
:101650002146179A059800F04DF805441CE00498BF
:10166000002807DBDDE90301884203DD0098405CC8
:10167000179901E0179930205A469047049805F1D0
:101680000105401C04900198401E019004D12E20B9
:101690005A46179990476D1CBAF10001AAF1010A48
:1016A000DDDC05E017F8010B5A46179990476D1CD1
:1016B000B8F10001A8F10108F4DC5B462146179A55
:1016C0000598ABE62D0000002B0000002000000074
:1016D0002DE9F041044600251E461746880404D42F
:1016E00005E039462020B0476D1C641EF9D5284618
:1016F000BDE8F0812DE9F041044600251E469046E4
:10170000C80301D5302700E02027880404D505E070
:1017100041463846B0476D1C641EF9D52846BDE8E1
:10172000F0810000024644F65900094BD8600129B7
:1017300005D11846406940EA5200586105E0044866
:10174000406920EA5200024B5861002070470000B7
:1017500000C00440044B188000BF034A928A02F084
:101760002002002AF9D070470050004070B50546AD
:101770000E4600240FA0FFF759FB14E004EB4400D1
:10178000194951F8200068B104EB44000B4603EB03
:101790008000826804EB440003EB8000416813A0E2
:1017A000FFF744FB641C062CE8DB13A0FFF73EFBAD
:1017B000164870BD2A2A2A2A2A68656C70206D6531
:1017C0006E752A2A2A2A2A0A62656C6F772061724E
:1017D0006520737570706F7274656420636F6D6DD2
:1017E000616E64733A0A000004000020252D3873EE
:1017F000202D2D0925730A002A2A2A7461626C653E
:1018000020656E642A2A2A0A0000000021436587A9
:101810000020FFF7A3F80020FFF712F802A105A0AF
:10182000FFF704FB00BFFEE731383A30313A33327C
:101830000000000048656C6C6F204144353934303D
:101840002D4275696C642054696D653A25730A00F0
:1018500070B504460D462A46214604A0FFF7E6FA75
:1018600009A0FFF7E3FA0A4870BD000070617261D9
:10187000313A3078253038782C2070617261323AF4
:101880003078253038780A0048656C6C6F0A0000A3
:101890007856341200404040404040404040414172
:1018A0004141414040404040404040404040404035
:1018B00040404040400502020202020202020202CF
:1018C00002020202022020202020202020202002CC
:1018D000020202020202909090909090101010105C
:1018E00010101010101010101010101010101010F8
:1018F000020202020202888888888888080808088C
:101900000808080808080808080808080808080857
:101910000202020240000000951800003F00000093
:101920007072696E7420706172616D657465726544
:101930007320616E64207361792068656C6C6F0040
:1019400068656C6C6F00000068656C7000000000DA
:101950007072696E7420737570706F727465642034
:10196000636F6D6D616E6473000000008C19000080
:101970000000002068000000540E0000F419000070
:101980006800002080040000620E000000000000DB
:101990006D17000048190000501900006D17000075
:1019A0001C190000501900005118000040190000D7
:1019B00020190000000000000000000000000000EE
:1019C0000000000000000000000000000000000017
:1019D0000000000000000000000000000000000007
:1019E00000000000000000000000000000000000F7
:0419F00000000000F3
:04000005000001599D
:00000001FF
